S00B00007372632E73726563D1
S113000019C028C027C026C025C024C023C022C0D0
S113001021C020C01FC01EC01DC01DC01BC01AC0EF
S113002019C018C017C016C015C014C013C012C020
S113003011C010C011241FBECFEFCDBFDFE3DEBF60
S11300402FE3A0E0BFE301C01D92AA32B207E1F79B
S1130050DCD0BBC1D5CF1F920F920FB60F921124E3
S11300602F933F934F935F936F937F938F939F93BC
S1130070AF93BF93EF93FF9330E040E050E026C08E
S1130080E32FF0E0CF01880F991F880F991FE80F25
S1130090F91FEE5FF04CA281B381AB2FBB27A15AAD
S11300A0B6472C9164812603C0011124892F990F2E
S11300B0990B480F591F6081718182819381860F4A
S11300C0971F82839383828193813F5F3830C0F28C
S11300D0403851052CF441388FEF580724F005C0FF
S11300E04FE750E002C041E85FEF40585F4F409354
S11300F0380A5093390A8091013F8F5F8093013F02
S11301008091013F823828F081E08093003F109273
S1130110013F81E08093460AFF91EF91BF91AF9137
S11301209F918F917F916F915F914F913F912F910B
S11301300F900FBE0F901F90189590E088ED84BF2C
S113014090936100089588E8809301040895E0E0A5
S1130150FAE083E181838FEF90E086A397A380E8A0
S113016090E080A791A781E080830895E0ECF1E01E
S113017088E08287138685E5848789E0818781E02A
S113018080830895E0E4FAE0108211828FEF92E018
S11301908487958781E085838083089580E011C0FA
S11301A0E82FF0E09F01220F331F220F331FE20FCD
S11301B0F31FEE5FF04C10821182128213821482BC
S11301C08F5F883068F30895FB018A5891099295EE
S11301D082958F7089279F70892789599F4F96959B
S11301E0879520813181820F931F80839183992386
S11301F034F480E090E8808391838FEF0895880F32
S1130200892F881F990B91950895CF93DF93CDB7CC
S1130210DEB76897CDBFDEBF90DFFE01399680E17F
S1130220DF011D928A95E9F7B9DF8DDF90DF9EDF4C
S1130230A9DF7894B12CE12CF12CC12CD12C00E055
S113024010E08091003F8823E1F31092003F20E00A
S113025027C0822F90E0FC01E253FC473081302319
S1130260F1F0E1E0F0E0EC0FFD1FE80FF91FE08191
S1130270F0E0EE0FFF1FE15AF24740815181FC018B
S1130280EE0FFF1FEE0FFF1F8E0F9F1FFC01EE5F8F
S1130290F04C40835183128213828FEF84832F5F4B
S11302A02830B8F200E036C0812F90E021E030E041
S11302B0012E02C0220F331F0A94E2F7022BF7012A
S11302C0EA52FC472081203440F068DFE12CF12C15
S11302D0C12CD12C00E010E02BC0E1E0F0E0EC0FE9
S11302E0FD1FE80FF91F2083880F991FE1E0F0E05C
S11302F0EC0FFD1FE80FF91F10861186BFEFEB1AF4
S1130300FB0AE3E8EE16E1E0FE0680F41F5F183016
S113031008F010E0F701EE0FFF1FE75AFA4780815B
S11303209181C816D90608F0BFCF02C0BB24B3948C
S1130330A12C33C08A2D90E0FC01EE0FFF1FEE0FBD
S1130340FF1FE80FF91FEE5FF04C2481222321F1F7
S1130350FC01E253FC4720812023F1F4BC01660F29
S1130360771F29E030E02C0F3D1F620F731F4C01F3
S1130370880C991C880C991C880D991DDC01AE5FB2
S1130380B04C4D018D919C911FDFE82FF0E0E15AB4
S1130390F7478081F4018483A394F7E0FA1550F6BB
S11303A02FEFC21AD20ABB2009F44BCF34EFC31685
S11303B032E4D30608F445CFF1DEB12CE12CF12C64
S11103C0C12CD12C00E010E03CCFF894FFCF0C
S11303CE0102040810204080091C2128182B2A1C25
S11303DE21182828092727271C18212827181C210B
S11303EE091C1821282B2A28181C212C092D181C0D
S11303FE212C2D18211C091C1821282B2A181C28E5
S113040E21282709211C182423181C2121231021FB
S113041E1C23171313171C2423092318211C1C181F
S113042E091C18181C0918282B2A2118281C2809FD
S113043E2727181C2128271C21180928181C212BB2
S113044E2A1821281C2C092D1C21182C2D18211C8E
S113045E0921181C282B2A281C211828272727098C
S113046E1C2118242321181C211023211C131723AB
S113047E13171C240923231C21181C1809181C18D3
S113048E1C240226151A1D2423151A1D24022626A1
S113049E261D151A2423151D1A24230923211C187D
S11304AE1C1809181C1C182402261D151A242315A1
S11304BE1A1D2402261A1D1524231D1A1524092378
S11304CE231C1821181C091C181C180928182A2169
S11304DE1C2C2D2F18331C212F092D2F2D1C2118C8
S11304EE18211C2F2D091C18212D2C21181C2928EC
S11304FE091C182128271C18212409232321181C20
S113050E181C091C18181C2402261D151A24231A3B
S113051E151D240226151A1D24231D151A2423091C
S113052E231C18211C1809181C181C2426021D151E
S113053E1A24231D151A24262602261A151D2423D1
S113054E1A1D15242309231C2118FF0000680068B6
S113055E00680068009C00CF00360137013701386F
S113056E0192019E019E019E019F01060206020751
S113057E0260026D02D602D602D6023D03A403A582
S113058E03A503A503D8030C04740474047504753D
S113059E04CF04DB04DB044205430544059D05AB8F
S11305AE051106110612067906E106E106E106E2D8
S11305BE0615074807B007B007B007B2070C0818AE
S11305CE0819087F0880088108DA08E8084F094FDF
S11305DE095009AB09B709B809110A1D0A1E0A1FE9
S11305EE0A1F0AED0AEE0AEE0A490B540B560BB01B
S11305FE0BBC0BBC0BBD0B8B0C8C0CF40C5B0D5C95
S113060E0D2A0E2A0E920EF90EF90E2D0F620FC937
S113061E0FC90FC90FC90F241030103110311099A2
S113062E1099109910F410FF10671167116811CF0B
S113063E1136123712371237126A129F120513052A
S113064E130513061361136D136D13D513D613D639
S113065E132F143D14A414A414A5140C157415749A
S113066E1574157415A815DB154216421642164458
S113067E169E16AA16AA16AB16AB16121712171337
S113068E176C177917E017E117E2173B1849184949
S113069E18A318B018B118B118B1187F197F1980A2
S11306AE19DB19E619E719421A4F1A4F1A501A1E76
S11306BE1B1F1B861BED1BEE1BBC1CBD1C161D2419
S11306CE1D241D8C1D8C1D8D1DE71DF31D5B1E5BD6
S11306DE1E5C1EB51EC31EC31EC31EC31E291F2AA7
S11306EE1F2B1F841F911FF91FFA1FFA1F5420611D
S11306FE206220B720C820C820C920972198210045
S113070E22672267223623372391239E239E2306B4
S113071E240724072460246D24D524D624D6242F1C
S113072E253C253C25A525A525A525FF250B2673AA
S113073E2673267426CE26DA26DB26362742274350
S113074E274327112812287A28E028E128B029B156
S113075E29182A4D2A7F2A7F2A7F2A802AB32AE83B
S113076E2A1B2B4E2B4E2B4F2B4F2B832BB62BB6DC
S113077E2B112C1D2C1D2C1D2C1F2CED2CED2CEEB9
S113078E2C472D542D552DBC2DBC2DBD2D172E2390
S113079E2E8B2E8B2E8C2EE72EF32EF42E5A2F5AB2
S11307AE2F5B2FB52FC22F2A302B302B3084309154
S11307BE309230EC30FA30FA30FA30C831C9313078
S11307CE329732973267336833C233CE33CE3335F2
S11307DE343634363491349F340535063506356156
S11307EE356C356D35D435D635D63530363D36A3E4
S11307FE36A436A436FF360C370C37663773377388
S113080E37743741384238AA3811391139E039E092
S113081E393C3A483A493AB03AB03AB13A0A3B19F5
S113082E3B7F3B803B803BD93BE73BE73BE83BE8E8
S113083E3B4E3C4F3C4F3CA93CB63C1E3D1E3D1E20
S113084E3D793D853D863DE03DED3DED3DEE3D9CE6
S113085E40FFFCFAF7F5F3F0EEEBE9E7E4E2E0DE55
S113086EDBD9D7D5D3D1CFCDCBC9C7C5C3C1BFBDB6
S113087EBBB9B7B6B4B2B0AEADABA9A8A6A4A3A18A
S113088E9F9E9C9B999896959392908F8D8C8B8915
S113089E888685848281807F7D7C7B7A7877767565
S11308AE747371706F6E6D6C6B6A6968676665647C
S11308BE636261605F5E5D5C5B5A5958575756556B
S11308CE5453525251504F4E4E4D4C4B4B4A494835
S11308DE484746454544434342414140403F3E3EDE
S11308EE3D3C3C3B3B3A393938383737363635356B
S11308FE343333323231313030302F2F2E2E2D2DE2
S113090E2C2C2B2B2B2A2A2928282727262625254B
S113091E24232322222121201F1F1E1E1D1D1C1CC9
S113092E1B1A1A1919181817161615151414131349
S113093E12111110100F0F0E0D0D0C0C0B0B0A0AC9
S113094E0908080707060605040403030202010149
S113095E00000000000000FFFEFEFDFEFEFF000092
S113096E000000FFFEFDFDFCFCFDFEFF000001008B
S113097E0000FFFEFDFDFE00000204050505030157
S113098E00FEFDFCFDFE000102030200FEFAF5F17D
S113099EEEEDEDF0F5FB01080F1417181714110DF9
S11309AE0A070606080A0D10121414141312121252
S11309BE121315181A1B1C1B1916110B0500FBF725
S11309CEF4F3F3F5F7FBFF010406060400FBF4EB66
S11309DEE2D9D0C8C2BEBBBAB9BABABAB9B8B5B3FD
S11309EEB1B0B2B5BBC3CEDAE6F3FE070F15191CD0
S11309FE1E2124282C31373B3D3E3C38312A221B04
S1130A0E16141519212A343F485056595A59575419
S1130A1E514F4D4B494845423D3730271F160E0660
S1130A2E00FBF6F2EFECEAE8E6E4E3E2E1E0DFDE17
S1130A3EDDDCDBD9D7D4D0CCC7C1BAB3ABA29A9282
S1130A4E8C878484878C939DA7B2BCC4CBD0D3D51A
S1130A5ED5D5D6D7D8DBDFE3E7EAEDEFF0F1F2F444
S1130A6EF7FC020B16222E39434B51545657565649
S1130A7E5555555656575654524E4945403C3A389C
S1130A8E393B3E42464B4F5356595B5C5C5C5A565F
S1130A9E51493F34261809FBEDE1D6CEC7C3C0BE7B
S1130AAEBDBCBCBCBDBEC0C3C8CCD2D7DCE0E3E485
S1130ABEE4E2DED9D4CEC8C2BCB6B1ACA6A19C9831
S1130ACE95949495999EA4ACB4BDC6CFD8E0E8F0A5
S1130ADEF8FF050B1014161615120E0A0501FFFD6C
S1130AEEFDFE000105090C1014181C22282F374096
S1130AFE4851596065696C6C6C6B696765646260BA
S1130B0E5D5A57534F4B46423E3B3837353433329A
S1130B1E302E2C2A2725221F1C18140F0A03FDF42D
S1130B2EEBE2D9D0C7BFB8B1ABA6A19D999693926B
S1130B3E9090909192939596979898999A9B9D9F41
S1130B4EA2A6AAAEB2B5B8BBBDBFC1C3C6CACED4E7
S1130B5EDAE1E9F0F6FC01060A0E12171B20262B29
S1130B6E31363B3F4346494B4D4F515355585B5DD0
S1130B7E60636567696B6D6E6F7070706F6D6B68B7
S1130B8E64605C58534F4B46413C37312B241E183E
S1130B9E120C070300FDFAF8F5F2EFECE8E4E0DBE3
S1130BAED6D2CDC9C5C1BDB9B5B1AEABA8A5A3A1A9
S1130BBE9F9E9C9B9A99989898999B9DA0A3A7AA4F
S1130BCEADB0B2B4B5B6B7B8B9BABCBFC1C5C8CC6E
S1130BDED0D4D8DDE2E8EEF5FC030B131B2229304A
S1130BEE353A3F43474B4F5256595C5E5F606162E4
S1130BFE6263646567696C6E7072737372716E6B27
S1130C0E67635F5B57534F4A46413B352F29231D7C
S1130C1E18130E0B070401FFFBF7F2EDE7E1DBD52A
S1130C2ECEC8C2BCB7B2ADA8A49F9B9793908D8B30
S1130C3E89888788898A8C8E909396989B9DA0A28A
S1130C4EA5A8ABAFB2B6BABEC2C7CBCFD3D7DBE083
S1130C5EE5EAF0F6FC01080E14191F24292E32378A
S1130C6E3C4045494D5155585A5D5F616365676A0D
S1130C7E6D707376797B7D7E7E7D7D7B79777573E2
S1130C8E706E6B67635E59534C453E362F271F18A3
S1130C9E100902FCF5EEE7E1DAD4CDC7C2BCB7B158
S1130CAEACA8A39F9A96938F8C898785848382811F
S1130CBE8181818283838586888A8C8E9195989C86
S1130CCEA1A5AAB0B5BBC1C6CCD2D8DEE4EAF0F673
S1130CDEFC00050B11171C22272D32373C41454AC7
S1130CEE4E5255595C5F626466686A6B6D6D6E6ECA
S1130CFE6F6E6E6D6C6B6A686664625F5D5A575395
S1130D0E504C4844403B37322E29241F1A150F0AE3
S1130D1E0500FBF6F1EBE6E1DCD7D2CEC9C5C0BCCB
S1130D2EB8B4B0ADA9A6A3A19E9C9A989695949397
S1130D3E929291929293939596989A9C9EA1A4A71F
S1130D4EABAEB2B6BBBFC4C9CED3D9DEE4E9EFF5C0
S1130D5EFBA500AE00B900C400CF00DC00E900F72B
S1130D6E00050115012501370149015D0172018755
S1130D7E019F01B701D201ED010B022A024B026D54
S1130D8E029202BA02E3020F033E036F03A303DAD5
S1130D9E03150453049504DB0425057305C6051ECB
S1130DAE067B06DE064607B5072A08A7082A09B6F3
S1130DBE094A0AE60A8C0B3C0CF60CBB0D8C0E6A27
S1130DCE0F55104D1155126C139314CC151817782A
S1040DDE18F8
S9030000FC
